:100000000C949A000C94C2000C94C2000C94C20090
:100010000C94C2000C94C2000C94C2000C94C20058
:100020000C94C2000C94C2000C94C2000C94C20048
:100030000C94C2000C94C2000C94C2000C94C20038
:100040000C942A0E0C94C2000C94F80D0C94D20D52
:100050000C94C2000C94C2000C94C2000C94C20018
:100060000C94740E0C94C20007634236B79BD8A759
:100070001A39685618AEBAAB558C1D3CB7CC5763CD
:10008000BD6DEDFD753EF6177231BF000000803F7B
:1000900008000000BE922449123EABAAAA2ABECD97
:1000A000CCCC4C3E00000080BEABAAAAAA3E000009
:1000B0000000BF000000803F000000000008417801
:1000C000D3BB4387D1133D190E3CC3BD4282AD2B38
:1000D0003E68EC8276BED98FE1A93E4C80EFFFBE30
:1000E00001C4FF7F3F000000000000000000250069
:1000F00028002B0004040404040404040202020285
:1001000002020303030303030102040810204080DA
:100110000102040810200102040810200000000859
:1001200000020100000304070000000000000000BE
:10013000930FA41311241FBECFEFD8E0DEBFCDBFB5
:1001400024E0AEE2B2E001C01D92A43DB207E1F7A7
:1001500012E0A0E0B1E0E8E3F0E302C005900D9208
:10016000AE32B107D9F710E0C9E9D0E004C0219759
:10017000FE010E940418C839D107C9F70E94ED0F8B
:100180000C940F180C940000E6EAF3E0A089B18902
:1001900082E08C93A485B5851C92A685B7858FECEB
:1001A0008C93108EA489B58986E08C93A289B3893B
:1001B0008C9180618C93A289B3898C9188608C9397
:1001C000A289B3898C9180688C930288F389E02D91
:1001D00080818F7D808308958CBD9DBD0895CF92D1
:1001E000DF92EF92FF920F931F93E62FDC014D9168
:1001F0005D916D917C91AE2FA150BB0B6A017B018B
:1002000004C0F694E794D794C794AA95D2F7C0FE99
:1002100015C001E010E020E030E004C0000F111F25
:10022000221F331FEA95D2F7401B510B620B730B51
:10023000DC014D935D936D937C9313971F910F9108
:10024000FF90EF90DF90CF900895AF92BF92CF9242
:10025000DF92EF92FF920F931F93CF93DF936C0186
:100260007B018B01040F151FEB015E01AE18BF0867
:10027000C017D10759F06991D601ED91FC91019019
:10028000F081E02DC6010995892B79F7C501DF9131
:10029000CF911F910F91FF90EF90DF90CF90BF9083
:1002A000AF900895089508950895FC01538D448DED
:1002B000252F30E0842F90E0821B930B541710F011
:1002C000CF96089501970895FC01918D828D98171E
:1002D00061F0A28DAE0FBF2FB11D5D968C91928DF6
:1002E0009F5F9F73928F90E008958FEF9FEF089527
:1002F000FC01918D828D981731F0828DE80FF11DF0
:10030000858D90E008958FEF9FEF0895FC01918D0A
:10031000228D892F90E0805C9F4F821B91098F7303
:100320009927089586EA93E00E94860121E0892BAF
:1003300009F420E0822F089580E090E0892B29F0D5
:100340000E94920181110C9400000895FC01A48D7B
:10035000A80FB92FB11DA35ABF4F2C91848D90E0E7
:1003600001968F739927848FA689B7892C93A089CA
:10037000B1898C91837080648C93938D848D981354
:1003800006C00288F389E02D80818F7D80830895E7
:10039000EF92FF920F931F93CF93DF93EC0181E0D5
:1003A000888F9B8D8C8D98131AC0E889F98980817C
:1003B00085FF15C09FB7F894EE89FF896083E889AF
:1003C000F98980818370806480839FBF81E090E0A1
:1003D000DF91CF911F910F91FF90EF900895F62E2E
:1003E0000B8D10E00F5F1F4F0F731127E02E8C8DC8
:1003F0008E110CC00FB607FCFACFE889F98980810D
:1004000085FFF5CFCE010E94A601F1CFEB8DEC0F59
:10041000FD2FF11DE35AFF4FF0829FB7F8940B8F29
:10042000EA89FB8980818062CFCFCF93DF93EC0193
:10043000888D8823B9F0AA89BB89E889F9898C91CC
:1004400085FD03C0808186FD0DC00FB607FCF7CF88
:100450008C9185FFF2CF808185FFEDCFCE010E9488
:10046000A601E9CFDF91CF91089590E0FC01E45E11
:10047000FE4F2491FC01E85FFE4F3491FC01EC50EB
:10048000FF4FE491EE23C9F0222339F0233001F12C
:10049000A8F4213019F1223029F1F0E0EE0FFF1F0E
:1004A000E651FF4FA591B4918FB7F894EC9161118B
:1004B00026C030953E233C938FBF08952730A9F086
:1004C0002830C9F0243049F7809180008F7D03C027
:1004D000809180008F7780938000DFCF84B58F7705
:1004E00084BDDBCF84B58F7DFBCF8091B0008F774B
:1004F0008093B000D2CF8091B0008F7DF9CF3E2B9A
:10050000DACF3FB7F8948091770290917802A0916A
:100510007902B0917A0226B5A89B05C02F3F19F049
:100520000196A11DB11D3FBFBA2FA92F982F882773
:10053000BC01CD01620F711D811D911D42E0660F4E
:10054000771F881F991F4A95D1F708958F929F9220
:10055000AF92BF92CF92DF92EF92FF926B017C013C
:100560000E9481024B015C01C114D104E104F10439
:10057000B9F00E948102681979098A099B09683ECD
:1005800073408105910580F321E0C21AD108E1088A
:10059000F10888EE880E83E0981EA11CB11CE4CF00
:1005A000FF90EF90DF90CF90BF90AF909F908F9093
:1005B00008952FB7F894609173027091740280913E
:1005C0007502909176022FBF08950F931F930E949A
:1005D000D9026093AE037093AF038093B0039093FE
:1005E000B10386EA93E00E94780197FF1DC00E9444
:1005F000D9020091AE031091AF032091B003309166
:10060000B103601B710B820B930B0091AA03109135
:10061000AB032091AC033091AD03601771078207E3
:100620009307F8F28FEF9FEF1F910F91089520919C
:100630004F02260F3327331F21323105ECF420916E
:100640007C03FC0190E080E0243069F082E00895B2
:10065000A0914F022191AC01415D5D4FA40FB52FD8
:10066000B11D2C930196861798F380914F02680F65
:1006700060934F0280E0089581E0089510927C031A
:1006800081E080937B031092560361E082E10E9437
:10069000350261E083E10E943502E9EBF0E0808100
:1006A0008E7F808380818D7F808388E48093B800F3
:1006B00085E48093BC000895CF93DF9391E09093FD
:1006C0002E028823B9F0C091B800D091BA00809171
:1006D000BC008A7B8093BC0060E082E10E9435020E
:1006E00060E083E10E9435020E943E03D093BA008D
:1006F000C093B800DF91CF9108958F929F92AF92EF
:10070000BF92CF92DF92EF92FF920F931F93CF93FE
:10071000DF93D091A503D13208F0D7C0182FC09134
:10072000A4030E9481026B017C0180917C038111F2
:100730006BC082E080937C0310937B038FEF8093E8
:100740007A0310927903D0937803A4E8B3E0E8E544
:10075000F3E080E0D81391C01092570380915703C3
:10076000CC0FC82BC093570380915603813009F0FA
:1007700088C0109256030E9481026B017C01809117
:1007800057038093BB0080917E0390917F03A091DB
:100790008003B0918103892B8A2B8B2BA1F00E94BF
:1007A000810200917E0310917F032091800330919C
:1007B00081036C197D098E099F0906171707280701
:1007C000390708F442C08091BC0083FDD8CF85EC86
:1007D0008093BC000E9481026B017C0180917C03AC
:1007E000823009F450C080917A038F3F09F46FC0C2
:1007F00080917A03803209F46CC080917A0380334F
:1008000009F469C084E026C080917E0390917F0343
:10081000A0918003B0918103892B8A2B8B2B09F443
:1008200084CF0E94810280907E0390907F03A090ED
:100830008003B09081036C197D098E099F0986168B
:100840009706A806B90608F070CF80917D030E9434
:100850005C0385E0109283031092A503109282033B
:10086000DF91CF911F910F91FF90EF90DF90CF908C
:10087000BF90AF909F908F9008959D9191938F5FBF
:1008800069CF85EEA5CF80917E0390917F03A091E3
:100890008003B0918103892B8A2B8B2B09F49ECF87
:1008A0000E94810200917E0310917F0320918003BA
:1008B000309181036C197D098E099F09061717076E
:1008C0002807390708F08ACFC0CF81E0C3CF80E086
:1008D000C1CF82E0BFCF83E0BDCFCF92DF92EF9256
:1008E000FF920F931F93CF93DF93D82FC62F6132C0
:1008F00008F098C00E9481026B017C0180917C030A
:1009000081116BC081E080937C0380937B039FEF18
:1009100090937A03109279039C0F909378038093BD
:10092000570380915703DD0FD82BD0935703809145
:100930005603813009F078C0109256030E9481025C
:100940006B017C01809157038093BB0080917E03F3
:1009500090917F03A0918003B0918103892B8A2B12
:100960008B2BA1F00E94810200917E0310917F03E6
:1009700020918003309181036C197D098E099F09B4
:10098000061717072807390708F448C08091BC00EC
:1009900083FDD8CF85EC8093BC000E9481026B015F
:1009A0007C0180917C03813009F440C080917903FF
:1009B0008C1710F4C0917903E8E5F3E0A6E3B3E007
:1009C00080E08C1355C08C2FDF91CF911F910F9138
:1009D000FF90EF90DF90CF90089580917E039091EB
:1009E0007F03A0918003B0918103892B8A2B8B2BED
:1009F00009F484CF0E94810200917E0310917F034D
:100A000020918003309181036C197D098E099F0923
:100A1000061717072807390708F070CF80917D0364
:100A20000E945C03C0E0CFCF85EEB5CF80917E03FE
:100A300090917F03A0918003B0918103892B8A2B31
:100A40008B2B09F4AECF0E94810200917E0310919E
:100A50007F0320918003309181036C197D098E09F9
:100A60009F09061717072807390708F09ACFD6CF2E
:100A700091919D938F5FA5CFE091800280917F023D
:100A8000E81730F4F0E0EA5CFC4F808190E00895D4
:100A90008FEF9FEF08959091800280917F022FEF5A
:100AA0003FEF981748F4E92FF0E0EA5CFC4F208113
:100AB00030E09F5F90938002C901089580917F028A
:100AC00090918002891B990B0895CF92DF92EF924B
:100AD000FF920F931F93CF93DF937C01CB018A0189
:100AE00020918203222389F0EB016B01C40ED51EF5
:100AF000CC15DD0569F06991D701ED91FC9101906C
:100B0000F081E02DC7010995F3CF642F0E941703F0
:100B1000C801DF91CF911F910F91FF90EF90DF906F
:100B2000CF900895CF93DF931F92CDB7DEB769833F
:100B3000209182032223F9F02091A503203258F05E
:100B400021E030E0FC013383228390E080E00F90CD
:100B5000DF91CF91089580918303E82FF0E0EC5767
:100B6000FC4F998190838F5F809383038093A503CB
:100B700081E090E0ECCF61E0CE0101960E94170386
:100B8000F7CF90E080E0089508958EBD00000DB489
:100B900007FEFDCF8EB508954F925F926F927F92C0
:100BA0008F929F92AF92BF92CF92DF92EF92FF927D
:100BB000CF93DF93EC01CB01BA010E94DB136B01F1
:100BC0007C01EA8584E0E89FF0011124EE5FFE4F8E
:100BD00060817181828193810E94DB139B01AC0152
:100BE000C701B6010E94A1156B017C016BA17CA11C
:100BF0008DA19EA10E94DB13A70196010E943A14C9
:100C00004B015C016B8D7C8D8D8D9E8D0E94DB1365
:100C10009B01AC01C501B4010E943515A7019601E5
:100C20000E943A144B015C016F85788989899A8901
:100C30000E94DB139B01AC01C501B4010E94351574
:100C4000A70196010E943A144B015C016B857C85DB
:100C50008D859E850E94DB139B01AC01C501B4010B
:100C60000E9435154B015C016F8D78A189A19AA175
:100C70000E94DB13A70196010E943A142B013C014C
:100C80006F89788D898D9A8D0E94DB139B01AC0151
:100C9000C301B2010E943515A70196010E943A14C2
:100CA0006B017C016B897C898D899E890E94DB1395
:100CB0009B01AC01C701B6010E9435152FA138A5D3
:100CC00049A55AA50E943A149B01AC01C501B40183
:100CD0000E943515DF91CF91FF90EF90DF90CF907C
:100CE000BF90AF909F908F907F906F905F904F904C
:100CF0000895CF92DF92EF92FF92CF93DF93EC01B2
:100D0000CB01BA010E94DB136B017C01E88584E012
:100D1000E89FF0011124EE5FFE4F608171818281B6
:100D200093810E94DB139B01AC01C701B6010E94B5
:100D3000A1156B017C01CFA2D8A6E9A6FAA66BADDE
:100D40007CAD8DAD9EAD0E94DB13A70196010E9484
:100D50003A146B017C016FA978AD89AD9AAD0E9400
:100D6000DB13A70196010E943515DF91CF91FF900B
:100D7000EF90DF90CF9008951F93CF93DF93EC0116
:100D8000142F8CA59DA52EA531E0309382032093CE
:100D9000A403109283031092A503DC01ED91FC9152
:100DA0000190F081E02D09958CA59DA5DC01ED91C8
:100DB000FC910190F081E02D612F099581E00E9466
:100DC0007D0321E030E0811102C030E020E088277F
:100DD0009927821B930BDF91CF911F9108950F9359
:100DE0001F93CF93DF93EC018BA581111CC0142FAF
:100DF000062F8DE590E00E94EC0060E089A90E943A
:100E00003502802F8F770E94C505812F0E94C5056E
:100E100061E089A90E94350290E080E0DF91CF91E6
:100E20001F910F9108958FEF9FEFF8CFFC0123A53D
:100E3000211102C00C94EF060C94BC06CF92DF92F5
:100E4000EF92FF920F931F93CF93DF938C01D62FD6
:100E5000C72F7A01DC019B968C919B9781112AC048
:100E60008DE590E00E94EC0060E0F80181A90E940D
:100E700035028D2F80680E94C505DE2D67018C2DFF
:100E80008D1B8C1738F48FEF0E94C505D6018D930A
:100E90006D01F5CF61E0F80181A90E943502D0E033
:100EA000CE01DF91CF911F910F91FF90EF90DF90D6
:100EB000CF9008959C968D919C919D979E962C9194
:100EC00031E0309382032093A403109283031092A5
:100ED000A503DC01ED91FC910190F081E02D0995D5
:100EE00080E00E947D036C2FC13208F060E2F801BF
:100EF00086A50E946D041092800280937F02C82F05
:100F0000D0E06701C6018E199F098C179D0744F632
:100F1000D8019C968D919C91DC01ED91FC9102840D
:100F2000F385E02D0995F60181936F01EBCF0F93C7
:100F30001F93CF93DF9300D01F92CDB7DEB78B0105
:100F4000BA0119821A821B82AE014F5F5F4F0E9465
:100F50001E070397F9F429818A8190E0B0E0A0E0B0
:100F6000BA2FA92F982F8827A22B2B81822BF8012B
:100F700080839183A283B38368E1C8010E94EF005C
:100F800090E080E00F900F900F90DF91CF911F9134
:100F90000F9108958FEF9FEFF5CF0F931F93CF938E
:100FA000DF93CDB7DEB762970FB6F894DEBF0FBE02
:100FB000CDBF8C016091000170910101AE014F5FC6
:100FC0005F4F0E941E07898190E0B0E0A0E024E01E
:100FD000880F991FAA1FBB1F2A95D1F72A81229536
:100FE0002F70822BF80187AB90AFA1AFB2AF6CE04E
:100FF000C801C7960E94EF00F80167A970AD81ADE6
:1010000092AD22E030E040E050E00E94E517F801A8
:1010100027AB30AF41AF52AF8A8190E0B0E0A0E0A3
:10102000BA2FA92F982F882788279F70AA27BB2718
:101030002B81822B83AF94AFA5AFB6AF6CE0C80114
:10104000CB960E94EF008C8190E0B0E0A0E04CE0F5
:10105000880F991FAA1FBB1F4A95D1F74D8150E0F9
:1010600070E060E0E4E0440F551F661F771FEA95CB
:10107000D1F7842B952BA62BB72B2E8122952F7081
:10108000822BF80183879487A587B68764E1C8011E
:101090000B960E94EF008E8190E0B0E0A0E0DC01B2
:1010A0009927882788279927AF70BB274F815885B4
:1010B00054274527542770E060E0842B952BA62BFE
:1010C000B72BF8018787908BA18BB28B64E1C801A5
:1010D0000F960E94EF0089859A859827892798277F
:1010E000B0E0A0E0F801838B948BA58BB68B60E118
:1010F000C80143960E94EF008B859C85982789271D
:101100009827B0E0A0E0F801878B908FA18FB28F75
:1011100060E1C80147960E94EF008D859E85982763
:1011200089279827B0E0A0E0F801838F948FA58FDE
:10113000B68F60E1C8014B960E94EF008F859889B9
:10114000982789279827B0E0A0E0F801878F90A31F
:10115000A1A3B2A360E1C8014F960E94EF00898964
:101160009A89982789279827B0E0A0E0F80183A3FF
:1011700094A3A5A3B6A360E1C80183960E94EF00E3
:1011800090E080E062960FB6F894DEBF0FBECDBF50
:10119000DF91CF911F910F9108951F93CF93DF930C
:1011A000EC01162F8BA581111AC08DE590E00E94ED
:1011B000EC0060E089A90E943502812F80680E94BE
:1011C000C5058FEF0E94C505182F61E089A90E940F
:1011D0003502812F90E0DF91CF911F9108958CA56A
:1011E0009DA52EA531E0309382032093A403109295
:1011F00083031092A503DC01ED91FC910190F08135
:10120000E02D099580E00E947D0361E08EA50E949B
:101210006D041092800280937F02882361F08CA578
:101220009DA5DC01ED91FC910284F385E02DDF9119
:10123000CF911F9109948FEF9FEFCDCFCF93DF9385
:10124000C52FD62F642F0E94CD0897FD07C08C2391
:1012500090E002C095958795DA95E2F7DF91CF91FE
:101260000895EF92FF920F931F93CF93DF9300D0D7
:1012700000D0CDB7DEB7DC0114962C91211172C0DD
:101280007B018C01FC01828193818130910559F0B1
:10129000409168015091690160916A01029749F09B
:1012A0008DEF9FEF3CC040916B0150916C016091BC
:1012B0006D01C8010E941E09009709F450C00197F2
:1012C00019F08FEF9FEF2BC0D80112968D919C9152
:1012D000139713961C921E9212978130910551F12B
:1012E000029779F74091540150915501BE016F5F0B
:1012F0007F4FC8010E94970749815A816B817C8189
:10130000D801ED91FC910284F385E02DC801099587
:10131000F701608371838283938390E080E00F9074
:101320000F900F900F90DF91CF911F910F91FF9031
:10133000EF9008954091520150915301BE016F5FAB
:101340007F4FC8010E94970749815A816B817C8138
:10135000D801ED91FC910484F585E02DD7CF8CEF79
:101360009FEFDDCF8EEF9FEFDACFEF92FF920F93DB
:101370001F93CF93DF938C01C62FD22FF32EE42E31
:10138000622F0E94CD0897FD20C02C2F01C0220F94
:10139000EA94EAF7482F42274F214827F80183A50E
:1013A0006D2F811109C0C801DF91CF911F910F915D
:1013B000FF90EF900C94EF06C801DF91CF911F9141
:1013C0000F91FF90EF900C94BC06DF91CF911F918D
:1013D0000F91FF90EF9008950F931F93CF93DF939A
:1013E000EC01062F0770142F177020915C013091CB
:1013F0005D0140915E01602F0E94B50920915F015F
:101400003091600140916101612FCE010E94B509C8
:10141000892B39F08FEF9FEFDF91CF911F910F91C3
:10142000089509871A87F8CF0F931F93CF93DF93FF
:10143000EC01062F0770142F177020915601309180
:10144000570140915801602F0E94B5092091590120
:1014500030915A0140915B01612FCE010E94B50984
:10146000892B39F08FEF9FEFDF91CF911F910F9173
:1014700008950F831887F8CF0F931F93CF93DF93AF
:101480008C01C62F2091620130916301409164016B
:101490000E94B5098F3F980731F0D0E0F801D3835F
:1014A000C28390E080E0DF91CF911F910F9108956A
:1014B000CF93DF93EC018C8181111DC08A819B81C8
:1014C000892BE1F4462F8885861306C062E0CE01A1
:1014D000DF91CF910C943C0AE881F9810480F58179
:1014E000E02D60E0CE010995892B81F38FEF9FEF0E
:1014F000DF91CF9108958EEF9FEFFACF8DEF9FEFA1
:10150000F7CFCF93DF93FC012481211119C0EC01A7
:1015100060E00E943C0A0097A9F4E881F981008408
:10152000F185E02DCE01099520916501309166018C
:101530004091670160E0CE01DF91CF910C94B50935
:101540008EEF9FEFDF91CF9108950F931F93CF936D
:10155000DF93EC018B01288580E190E0A0E0B0E012
:1015600004C0880F991FAA1FBB1F2A95D2F7449663
:101570006AE070E00E94D11790E080E00E94A6022D
:101580006AE070E080E090E00E94A602B801CE011F
:101590000E9431098C01892B19F0CE010E94810A29
:1015A000C801DF91CF911F910F9108950F931F9361
:1015B000CF93DF93EC018B0168850E94580A009756
:1015C00041F4B801CE01DF91CF911F910F910C949E
:1015D000A50ADF91CF911F910F91089520913401B9
:1015E000309135014091360161E00C94B5091F93AB
:1015F000CF93DF93EC01142F0E94EC09209131016D
:10160000309132014091330161E0143008F460E020
:10161000CE01DF91CF911F910C94B5091F93CF9309
:10162000DF93EC01142F0E94140A209128013091BD
:10163000290140912A016EA9CE010E94B50920918D
:101640002E0130912F014091300161E0143008F4F7
:1016500060E0CE01DF91CF911F910C94B5090F93FB
:101660001F93CF93DF93CDB7DEB728970FB6F894CB
:10167000DEBF0FBECDBF8C014091220150912301EE
:10168000609124010E941E0997FF0FC081E0D801DC
:1016900014968C9328960FB6F894DEBF0FBECDBF7C
:1016A000DF91CF911F910F910895F80185834091AB
:1016B00025015091260160912701C8010E941E0951
:1016C00097FDE4CFD80116968C9340912B01509151
:1016D0002C0160912D01C8010E941E0997FDD6CFF3
:1016E000F80186AB209128013091290140912A010F
:1016F000682FC8010E94B50997FDC8CFD801ED91A8
:10170000FC910280F381E02DC801099597FDBECFC1
:10171000C8010E94810AD801ED91FC910480F581F5
:10172000E02D43E062E0C8010995D801ED91FC91FC
:101730000680F781E02D43E062E0C8010995BE0113
:101740006B5F7F4FC8010E94D60AC8010E94810AC0
:10175000F801848181119ECF45EA6EE0C8010E94A4
:10176000160746E96FE0C8010E94160742E062E6EC
:10177000C8010E94160740E06EE0C8010E941607EB
:1017800040E06FE0C8010E941607BE016F5F7F4F07
:10179000C8010E94D60A7ECFFC0101900020E9F723
:1017A0003197AF01481B590BBC0186EA93E00C94BA
:1017B00025018F929F92AF92BF920F931F93CF9369
:1017C000DF93CDB7DEB7A1970FB6F894DEBF0FBE9B
:1017D000CDBF19A2423008F44AE08E010F5D1F4FC1
:1017E000842E912CB12CA12CA50194010E94F814F7
:1017F000E62FB901CA01EA30F4F4E05DD801EE93B6
:101800008D01232B242B252B79F790E080E0109776
:1018100019F0CD010E94CC0BA1960FB6F894DEBF53
:101820000FBECDBFDF91CF911F910F91BF90AF90B1
:101830009F908F900895E95CE1CF4F925F926F92F5
:101840007F928F929F92AF92BF92CF92DF92EF9250
:10185000FF920F931F93CF936B017C01742EAC0109
:101860009B010E949716882399F08EEC91E0CF910E
:101870001F910F91FF90EF90DF90CF90BF90AF90AE
:101880009F908F907F906F905F904F900C94CC0BB7
:1018900046015701E894B7F82FEF3FEF4FE75FE7B6
:1018A000C501B4010E94971681110DC02FEF3FEFC3
:1018B0004FE75FE7C501B4010E94D41318161CF46A
:1018C00082ED91E0D4CF2FEF3FEF4FE75FE4C70108
:1018D000B6010E94421618161CF486ED91E0C7CF9F
:1018E0002FEF3FEF4FE75FECC701B6010E94D41323
:1018F00087FDF3CF20E030E0A901C701B6010E94C7
:10190000D41310E000E087FF0AC06DE286EA93E09E
:101910000E94C8018C01F7FAF094F7F8F094C0E047
:1019200060E070E080E09FE37C1641F020E030E072
:1019300040E251E40E94A115CF5FF6CFA7019601C6
:101940000E9435152B013C010E9413164B015C01CE
:101950004AE00E94D90B7C01E00EF11ECC23C1F1BC
:10196000C501B4010E94D9139B01AC01C301B201AE
:101970000E9434154B015C016EE286EA93E00E94FE
:10198000C801E80EF91EC15018F120E030E040E235
:1019900051E4C501B4010E943A142B013C010E949C
:1019A00013164B01B12CA12C4AE0C501B4010E94D1
:1019B000D90BE80EF91EC501B4010E94D9139B0191
:1019C000AC01C301B2010E9434154B015C01DBCFB5
:1019D000C701CF911F910F91FF90EF90DF90CF90B3
:1019E000BF90AF909F908F907F906F905F904F903F
:1019F0000895CF93DF9342E00E941D0CEC018AED25
:101A000091E00E94CC0B8C0F9D1FDF91CF91089528
:101A10000C94CC0BCF93DF930E94CC0BEC018AED9E
:101A200091E00E94CC0B8C0F9D1FDF91CF91089508
:101A3000CF92DF92EF92FF92CF93DF936C01990FD9
:101A4000EE08FF08F7FE1FC06DE286EA93E00E94F1
:101A5000C801EC0166277727CB016C197D098E0937
:101A60009F094AE00E94D90BC80FD91F8AED91E067
:101A70000E94CC0B8C0F9D1FDF91CF91FF90EF90B8
:101A8000DF90CF9008954AE0C701B6010E94D90BBC
:101A9000EC01ECCFEF92FF920F931F93CF93DF9364
:101AA00000D000D0CDB7DEB786EA93E00E94640193
:101AB00086EA93E00E9464018E010F5F1F4F780158
:101AC0008A3341F0F80181938F0186EA93E00E9406
:101AD0006401F6CFC7010E94AE13182F86EA93E087
:101AE0000E9464018053990B8230910520F4682F85
:101AF000812F0E94350286EA93E00E9464018A30B9
:101B000011F08D30C1F786EA93E00E9478018A30A7
:101B100021F486EA93E00E9464010F900F900F90E9
:101B20000F90DF91CF911F910F91FF90EF9008954B
:101B30000E940A1885ED8093BC0080917E039091ED
:101B40007F03A0918003B09181030796A11DB11D71
:101B500023E0B695A795979587952A95D1F720917B
:101B6000BC0024FD03C010927C03089540917E03C5
:101B700050917F036091800370918103452B462B28
:101B8000472B69F30097A105B10541F025E32A959C
:101B9000F1F700000197A109B109E1CF80917D0320
:101BA0000C945C031F920F920FB60F9211242F9387
:101BB0003F934F935F936F937F938F939F93AF93D5
:101BC000BF93EF93FF9386EA93E00E94A601FF91F3
:101BD000EF91BF91AF919F918F917F916F915F91A5
:101BE0004F913F912F910F900FBE0F901F9018951E
:101BF0001F920F920FB60F9211242F938F939F93E2
:101C0000EF93FF93E091B603F091B7038081E091E9
:101C1000BC03F091BD0382FD1BC090818091BF0386
:101C20008F5F8F732091C003821741F0E091BF0353
:101C3000F0E0EA55FC4F958F8093BF03FF91EF9141
:101C40009F918F912F910F900FBE0F901F9018951D
:101C50008081F4CF1F920F920FB60F9211242F9311
:101C60003F938F939F93AF93BF9380917302909113
:101C70007402A0917502B09176023091720223E055
:101C8000230F2D3758F50196A11DB11D2093720227
:101C90008093730290937402A0937502B0937602BE
:101CA0008091770290917802A0917902B0917A02A6
:101CB0000196A11DB11D8093770290937802A093A5
:101CC0007902B0937A02BF91AF919F918F913F912A
:101CD0002F910F900FBE0F901F90189526E8230F9D
:101CE0000296A11DB11DD2CF1F920F920FB60F9277
:101CF00011242F933F934F935F936F937F938F9311
:101D00009F93AF93BF93EF93FF938091B900887F28
:101D1000803609F44AC0F0F5883209F4A7C018F5F6
:101D2000803109F49BC0B8F4882309F4F9C08830E5
:101D300009F494C0FF91EF91BF91AF919F918F9162
:101D40007F916F915F914F913F912F910F900FBEB7
:101D50000F901F901895883109F488C0803251F790
:101D600080937A0314C0803409F49DC040F480331A
:101D7000B9F38833F9F680937A0385ECB0C08035E7
:101D800009F485C0883509F496C0883499F60E9414
:101D90009A0DD0CF883909F48CC038F5883729F0EE
:101DA00050F4883611F0803729F683E080937C0365
:101DB0001092710257C0883809F47BC0803919F03D
:101DC000803809F0B7CF80917102803208F071C07D
:101DD000E091710281E08E0F809371028091BB00CF
:101DE000F0E0EF5AFD4F80833DC0803B39F0E0F4D6
:101DF000803A09F479C0883A09F09CCF84E0809356
:101E00007C031092500210924F02E0917D02F091FB
:101E10007E02099580914F0281110FC081E080936D
:101E20004F0210922F0209C0803C09F4A6CF883CD3
:101E300009F4A3CF883B09F07DCFE091500281E007
:101E40008E0F80935002F0E0E15DFD4F8081809322
:101E5000BB009091500280914F0229C0809157039E
:101E60008093BB0085EC8093BC0064CF9091790394
:101E700080917803981758F5E091790381E08E0FEF
:101E800080937903F0E0E85AFC4F8081E9CFE0913C
:101E9000790381E08E0F809379038091BB00F0E09D
:101EA000E85AFC4F808390917903809178039817CA
:101EB000C8F285E8D8CFE091790381E08E0F809356
:101EC00079038091BB00F0E0E85AFC4F8083809159
:101ED0007B0381115CCF81E08093560384EA809379
:101EE000BC0010927C0326CF85EC8093BC0010923E
:101EF0007C0380917102803230F4E0917102F0E055
:101F0000EF5AFD4F10826091710270E0E0917B0208
:101F1000F0917C0281E592E00995109271020ACF5E
:101F200010927A0334CFE6EAF3E01382128288EE4D
:101F300093E0A0E0B0E084839583A683B7832AE88A
:101F400031E03183208325EC30E03587248724EC91
:101F500030E03787268720EC30E0318B208B21EC76
:101F600030E0338B228B22EC30E0358B248B26EC57
:101F700030E0378B268B118E128E138E148EE3E495
:101F8000F4E01382128284839583A683B7838CE95D
:101F900091E091838083EFE4F4E01682178210864B
:101FA0001186128613861486158616861786108A61
:101FB000118A128A138A148A158AEBECF4E089E0FC
:101FC000DF011D928A95E9F7E5E9F4E081E0848379
:101FD00080EC91E0918380830895CF93DF93CDB718
:101FE000DEB728970FB6F894DEBF0FBECDBF78944A
:101FF00084B5826084BD84B5816084BD85B582600E
:1020000085BD85B5816085BD80916E0081608093BE
:102010006E00109281008091810082608093810027
:102020008091810081608093810080918000816037
:10203000809380008091B10084608093B100809192
:10204000B00081608093B00080917A0084608093BA
:102050007A0080917A00826080937A0080917A0081
:10206000816080937A0080917A00806880937A0002
:102070001092C10010929104109292041092930455
:10208000109294041092510410925204109253042E
:10209000109254040E94D9026B017C014B015C0137
:1020A00028EB820E2BE0921EA11CB11C0E94D902CB
:1020B0006C157D058E059F0528F086169706A806E7
:1020C000B906A0F768EE73E080E090E00E94A602F7
:1020D0000E94C4000E94D90260935104709352047C
:1020E00080935304909354048DED91E00E94080D69
:1020F0000E94D9026B017C014B015C013AE0830E26
:10210000911CA11CB11C0E94D9026C157D058E0585
:102110009F0528F086169706A806B906A0F711E0D5
:10212000109365040E94D902609351047093520485
:1021300080935304909354048EEE91E00E94080D16
:102140000E94C400109299041093C00483E494E0A8
:102150009093C2048093C10487E78093C3041092D4
:10216000800210927F02109283031092A5030E94B6
:102170003E0383E591E090937E0280937D0284E5A7
:1021800091E090937C0280937B0262E370E080E0B8
:1021900090E00E94A60285E994E00E942F0B85EF53
:1021A00091E00E940A0D1092D5021092D602109270
:1021B000D7021092D80210928102109282021092DD
:1021C00083021092840201E812E039EDE32E32E03E
:1021D000F32E41EDC42E42E0D42ED8016D917D91B5
:1021E0008D919D918D012DEC3CEC4CE45DE30E94C2
:1021F00035154B015C01F80180829182A282B38285
:1022000020E030E040E450E40E943A14D7016D939E
:102210007D938D939D937D0142E0C501B4010E94A1
:102220001D0C84E092E00E94080DF7013497608154
:102230007181828193810E94F90CC016D10669F6E2
:1022400020E0222E20E0322E0E94D902672B682B3C
:10225000692B09F4EFC00E94D9020091320310915A
:1022600033032091340330913503601771078207DF
:10227000930708F40CC100913203109133032091AD
:102280003403309135036B017C01C01AD10AE20A94
:10229000F30A970186010A3F11052105310508F46B
:1022A000D1C06093320370933303809334039093CF
:1022B000350324EF31E040E050E020935D0430939B
:1022C0005E0440935F045093600410926104109286
:1022D00062041092630410926404809155049091FA
:1022E0005604A0915704B0915804809359049093D8
:1022F0005A04A0935B04B0935C040E94D9026093DB
:10230000550470935604809357049093580486EABA
:1023100093E00E947801843611F40E944A0D0E94D5
:10232000D9026093510470935204809353049093A4
:1023300054040E94D9026B017C0187E092E00E9464
:10234000080D4AE061E070E080E090E00E94D90B67
:102350008EE092E00E94080D4AE0C701B6010E949B
:10236000D90B80E192E00E94080D80915504909174
:102370005604A0915704B0915804A7019601281B58
:10238000390B4A0B5B0BCA01B9014AE00E94D90B19
:1023900080E192E00E94080D60915504709156040E
:1023A00080915704909158040091590410915A0457
:1023B00020915B0430915C04601B710B820B930BCA
:1023C0004AE00E94D90B82E192E00E94080D0E942F
:1023D000D9024AE00E94D90B84E192E00E940A0DE2
:1023E0000E94D9026B017C014B015C0132E0830E3B
:1023F000911CA11CB11C0E94D9026C157D058E0593
:102400009F0528F086169706A806B906A0F786EA63
:1024100093E00E947801843611F40E944A0D0E94D4
:10242000D902609355047093560480935704909397
:10243000580408C00E94D9026230710581059105D7
:1024400008F009CF61E085E994E00E94580A8C0108
:10245000892B51F4BE016B5F7F4F85E994E00E94A8
:10246000A50A8C01892BE1F08BE192E00E94080D16
:10247000C8010E94180D2114310409F4E5CE0E9410
:102480009201882309F4DCCE0E940000D9CE60932B
:102490003203709333038093340390933503EBCE70
:1024A00080919904882329F00E94D9020EEF1FEF32
:1024B000DBCF8091970490919804892B29F00E949A
:1024C000D9020DEF1FEFD0CF80919F04813069F0CA
:1024D00041E060E085E994E00E94F70A892B29F049
:1024E0000E94D9020FEF1FEFBFCF61E085E994E0B2
:1024F0000E943C0A8C01892B09F018C180919F042D
:1025000090E1C92ED12CE12CF12C04C0CC0CDD1CA7
:10251000EE1CFF1C8A95D2F7C60144966AE070E073
:102520000E94D11790E080E00E94A6026AE070E06D
:1025300080E090E00E94A602BE016F5F7F4F85E9B8
:1025400094E00E9431098C01892B09F0EBC00E94B4
:10255000D90286EA93E00E948601181619060CF04B
:102560009FC086EA93E00E946401833709F098C017
:102570000E94E502FC0197FDE3C08D32910521F038
:10258000C0970A9708F0D5C0C12CD12C760110E075
:10259000E130F105D9F0ED32F10509F4CFC0CF01FA
:1025A000C0970A9798F4AAE0B0E0A70196010E94AC
:1025B0001A156F01FF0FEE08FF08C60ED71EE81EA2
:1025C000F91E20E3C21AD108E108F10886EA93E077
:1025D0000E9464010E94E502FC01C0970A97C0F2C4
:1025E000E130F105A9F2112341F0F094E094D09488
:1025F000C094C11CD11CE11CF11C89809A80AB8065
:10260000BC8080922E0390922F03A0923003B09250
:1026100031034D805E806F80788440922A0350920F
:102620002B0360922C0370922D0381E08093290389
:10263000C701B6010E94DB1324EF3DEF44ED5BE3DD
:102640000E943A146B017C0123E333E948E853E428
:10265000C301B2010E943515A70196010E943515EC
:102660009B01AC01C701B6010E94A1159B01AC0101
:1026700060E070E080E89FE30E9434152CE13CE2CA
:1026800048EA50E40E9447169B01AC01C501B40121
:102690000E94A1150E94F90C88E292E00E940A0DA6
:1026A00080912903882309F4E6CE20912E033091EE
:1026B0002F03409130035091310369817A818B81DE
:1026C0009C810E94A1152BE534ED42E45EEB0E9453
:1026D00047164B015C0123E333E948E853E460917A
:1026E0002A0370912B0380912C0390912D030E945B
:1026F000351524EF3DEF44ED5BE30E94A1156B011E
:102700007C0120E030E040E85FE3C501B4010E94B5
:1027100034159B01AC01C701B6010E943A140E9416
:10272000F90CA9CE85E994E00E94810A0E94D902A1
:102730009BCE86EA93E00E9464011ACF11E046CF57
:10274000C12CD12C760159CF8EEA91E0909396045A
:102750008093950485E994E00C94810AFC01882714
:102760009927E89421912032E9F3293010F02E3096
:10277000C8F32B3241F02D3239F4689404C00E9422
:10278000CC13820F911D219120532A30C0F31EF4E7
:10279000909581959F4F08957AE0979F902D879F00
:1027A000802D910D112408950E94161408F481E0E3
:1027B0000895E89409C097FB3EF490958095709534
:1027C00061957F4F8F4F9F4F9923A9F0F92F96E97D
:1027D000BB279395F695879577956795B795F111F2
:1027E000F8CFFAF4BB0F11F460FF1BC06F5F7F4F8F
:1027F0008F4F9F4F16C0882311F096E911C07723A1
:1028000021F09EE8872F762F05C0662371F096E8A9
:10281000862F70E060E02AF09A95660F771F881F78
:10282000DAF7880F9695879597F90895990F00081C
:10283000550FAA0BE0E8FEEF16161706E807F90792
:10284000C0F012161306E407F50798F0621B730B2D
:10285000840B950B39F40A2661F0232B242B252BAE
:1028600021F408950A2609F4A140A6958FEF811D51
:10287000811D08950E944D140C94BE140E94B01442
:1028800038F00E94B71420F0952311F00C94A7148F
:102890000C94AD1411240C94F2140E94CF1470F314
:1028A000959FC1F3950F50E0551F629FF001729FF5
:1028B000BB27F00DB11D639FAA27F00DB11DAA1F04
:1028C000649F6627B00DA11D661F829F2227B00D51
:1028D000A11D621F739FB00DA11D621F839FA00DDC
:1028E000611D221F749F3327A00D611D231F849F2C
:1028F000600D211D822F762F6A2F11249F57504083
:102900009AF0F1F088234AF0EE0FFF1FBB1F661FFD
:10291000771F881F91505040A9F79E3F510580F0C6
:102920000C94A7140C94F2145F3FE4F3983ED4F394
:10293000869577956795B795F795E7959F5FC1F76A
:10294000FE2B880F911D9695879597F9089597F915
:102950009F6780E870E060E008959FEF80EC089545
:1029600000240A941616170618060906089500246E
:102970000A9412161306140605060895092E0394E8
:10298000000C11F4882352F0BB0F40F4BF2B11F45C
:1029900060FF04C06F5F7F4F8F4F9F4F089557FDBB
:1029A0009058440F551F59F05F3F71F04795880FBD
:1029B00097FB991F61F09F3F79F087950895121654
:1029C00013061406551FF2CF4695F1DF08C0161600
:1029D00017061806991FF1CF8695710561050894B1
:1029E0000895E894BB2766277727CB0197F90895C8
:1029F000A1E21A2EAA1BBB1BFD010DC0AA1FBB1F03
:102A0000EE1FFF1FA217B307E407F50720F0A21B74
:102A1000B30BE40BF50B661F771F881F991F1A94E1
:102A200069F760957095809590959B01AC01BD010B
:102A3000CF0108950E942515A59F900DB49F900D7C
:102A4000A49F800D911D11240895A29FB001B39FF2
:102A5000C001A39F700D811D1124911DB29F700DA7
:102A6000811D1124911D08955058BB27AA270E944B
:102A70004C150C94BE140E94B01438F00E94B71488
:102A800020F039F49F3F19F426F40C94AD140EF4A1
:102A9000E095E7FB0C94A714E92F0E94CF1458F39C
:102AA000BA17620773078407950720F079F4A6F533
:102AB0000C94F1140EF4E0950B2EBA2FA02D0B01FF
:102AC000B90190010C01CA01A0011124FF27591B73
:102AD00099F0593F50F4503E68F11A16F040A22F79
:102AE000232F342F4427585FF3CF469537952795EA
:102AF000A795F0405395C9F77EF41F16BA0B620BE9
:102B0000730B840BBAF09150A1F0FF0FBB1F661F2F
:102B1000771F881FC2F70EC0BA0F621F731F841F72
:102B200048F4879577956795B795F7959E3F08F098
:102B3000B0CF9395880F08F09927EE0F979587955A
:102B400008950E94B5150C94BE140E94B71458F055
:102B50000E94B01440F029F45F3F29F00C94A714B0
:102B600051110C94F2140C94AD140E94CF1468F31C
:102B70009923B1F3552391F3951B550BBB27AA2736
:102B800062177307840738F09F5F5F4F220F331F70
:102B9000441FAA1FA9F335D00E2E3AF0E0E832D038
:102BA00091505040E695001CCAF72BD0FE2F29D03B
:102BB000660F771F881FBB1F261737074807AB070D
:102BC000B0E809F0BB0B802DBF01FF2793585F4F82
:102BD0003AF09E3F510578F00C94A7140C94F2142F
:102BE0005F3FE4F3983ED4F3869577956795B79564
:102BF000F7959F5FC9F7880F911D9695879597F96F
:102C00000895E1E0660F771F881FBB1F62177307E7
:102C10008407BA0720F0621B730B840BBA0BEE1FFC
:102C200088F7E09508950E94D71488F09F5798F090
:102C3000B92F9927B751B0F0E1F0660F771F881FC1
:102C4000991F1AF0BA95C9F714C0B13091F00E94DB
:102C5000F114B1E008950C94F114672F782F8827B0
:102C6000B85F39F0B93FCCF3869577956795B39502
:102C7000D9F73EF490958095709561957F4F8F4F71
:102C80009F4F08950E94161408F48FEF0895FA01DB
:102C9000EE0FFF1F309621053105A1F16115710579
:102CA00061F48038BFE39B0749F16894903881054F
:102CB00061F08038BFEF9B0741F099234AF5FF3F51
:102CC000E1053105210519F1E8940894E795D9014A
:102CD000AA2329F4AB2FBE2FF85FD0F310C0FF5FFB
:102CE00070F4A695E0F7F73950F019F0FF3A38F490
:102CF0009F779F930DD00F9007FC9058089546F052
:102D00000C94AD1460E070E080E89FE308954FE715
:102D10009F775F934F933F932F930E9447172F9175
:102D20003F914F915F910E943A140C94A4160E9417
:102D30001614880B990B089529F416F00C94A71417
:102D40000C94F1140C94AD140E94D714A8F3963887
:102D5000A0F707F80F92E8942BE33AEA48EB5FE715
:102D60000E9450140F920F920F924DB75EB70F92C0
:102D70000E948F17E8E6F0E00E94D6164F915F910F
:102D8000EF91FF91E595EE1FFF1F49F0FE57E068B8
:102D90004427EE0F441FFA95E1F74195550B0E9429
:102DA00009170F9007FE0C94FD160895DF93CF933B
:102DB0001F930F93FF92EF92DF927B018C01689437
:102DC00006C0DA2EEF010E944D14FE01E894A59191
:102DD0002591359145915591A6F3EF010E944C152F
:102DE000FE019701A801DA9469F7DF90EF90FF9058
:102DF0000F911F91CF91DF9108959B01AC0160E08D
:102E000070E080E89FE30C94A1150C94A7140C9437
:102E1000C3170E94D714D8F39923C9F3940F511DF7
:102E2000A3F39150504094F059F0882332F0660F8C
:102E3000771F881F91505040C1F79E3F51052CF7D6
:102E4000880F911D9695879597F908955F3FACF08F
:102E5000983E9CF0BB27869577956795B79508F4C3
:102E6000B1609395C1F7BB0F58F711F460FFE8CF3D
:102E70006F5F7F4F8F4F9F4FE3CF0C94F21416F08C
:102E80000C94C3170C94AD1468940C94A7140E946E
:102E9000D714A8F39923C1F3AEF3DF93CF931F9315
:102EA0000F93FF92C92FDD2788232AF02197660F01
:102EB000771F881FDAF720E030E040E85FEB9FE300
:102EC000883920F0803E38F021968F770E943515A2
:102ED000E0E9F0E004C00E943515EDEBF0E00E945F
:102EE000D6168B01BE01EC01FB2E6F57710975954B
:102EF000771F880B990B0E94DB1328E132E741E32F
:102F00005FE30E944D14AF2D9801AE01FF900F9129
:102F10001F91CF91DF910E944C150C94BE14FA01C1
:102F2000DC01AA0FBB1F9B01AC01BF5728F422276D
:102F300033274427507820C0B75190F4AB2F00249A
:102F4000469537952795011CA395D2F3002071F083
:102F5000220F331F441FB395DAF30ED00C943415AF
:102F600061307105A0E88A07B94630F49B01AC01D5
:102F70006627772788279078309621F02083318341
:102F80004283538308959F3F31F0915020F48795F9
:102F900077956795B795880F911D9695879597F9C1
:102FA0000895AA1BBB1B51E107C0AA1FBB1FA61790
:102FB000B70710F0A61BB70B881F991F5A95A9F7E2
:102FC00080959095BC01CD010895052E97FB1EF4C8
:102FD00000940E94FC1757FD07D00E94F81407FCCC
:102FE00003D04EF40C94FC175095409530952195E4
:102FF0003F4F4F4F5F4F0895909580957095619525
:103000007F4F8F4F9F4F0895EE0FFF1F0590F49154
:10301000E02D099481E090E0F8940C940F1810E0F2
:10302000C9E9D0E004C0FE010E9404182196CA3903
:08303000D107C9F7F894FFCFA6
:10303800101200000800000018000000380000000E
:10304800780000E0030000E0070000E00F0000E067
:103058001F000D0F000DF0040780072880070908DE
:10306800030904020C80070B01000B020109800709
:1030780009700400000000000000000000000000CB
:103088000000000303030770040707000670040626
:1030980007000807000902010820050810040A04AF
:1030A800020A02010A0100000000000000000000FE
:1030B80000000000000000000000C80125015501C3
:1030C800150286016401780100000000920565057B
:1030D800C10552015E054B053C0500000000980D36
:1030E800980D140AEC09980D980D980D0000000031
:1030F8002F0BCD070E0BF70AEE0A7906CC056E6189
:103108006E00696E66006F7666000D0A00564D44C3
:1031180050565F317C315F564D4450560A00564D2B
:103128004450525F00496E697420636F6D706C651E
:1031380074652100202000564D4450455F003A3206
:103148003A007C005F564D445045004641494C21A9
:0E31580020726574203D200053746172740073
:00000001FF
