:100000000C949A000C94C2000C94C2000C94C20090
:100010000C94C2000C94C2000C94C2000C94C20058
:100020000C94C2000C94C2000C94C2000C94C20048
:100030000C94C2000C94C2000C94C2000C94C20038
:100040000C94970D0C94C2000C94650D0C943F0D0C
:100050000C94C2000C94C2000C94C2000C94C20018
:100060000C94E10D0C94C20007634236B79BD8A7ED
:100070001A39685618AEBAAB558C1D3CB7CC5763CD
:10008000BD6DEDFD753EF6177231BF000000803F7B
:1000900008000000BE922449123EABAAAA2ABECD97
:1000A000CCCC4C3E00000080BEABAAAAAA3E000009
:1000B0000000BF000000803F000000000008417801
:1000C000D3BB4387D1133D190E3CC3BD4282AD2B38
:1000D0003E68EC8276BED98FE1A93E4C80EFFFBE30
:1000E00001C4FF7F3F000000000000000000250069
:1000F00028002B0004040404040404040202020285
:1001000002020303030303030102040810204080DA
:100110000102040810200102040810200000000859
:1001200000020100000304070000000000000000BE
:10013000000F8A1111241FBECFEFD8E0DEBFCDBF64
:1001400023E0A0E0B2E001C01D92A43BB207E1F7BA
:1001500012E0A0E0B1E0E8EBFBE202C005900D92F6
:10016000A030B107D9F710E0C9E9D0E004C0219769
:10017000FE010E94C415C839D107C9F70E94480F73
:100180000C94CF150C9400008CBD9DBD0895CF92AA
:10019000DF92EF92FF920F931F93E62FDC014D91B8
:1001A0005D916D917C91AE2FA150BB0B6A017B01DB
:1001B00004C0F694E794D794C794AA95D2F7C0FEEA
:1001C00015C001E010E020E030E004C0000F111F76
:1001D000221F331FEA95D2F7401B510B620B730BA2
:1001E000DC014D935D936D937C9313971F910F9159
:1001F000FF90EF90DF90CF900895AF92BF92CF9293
:10020000DF92EF92FF920F931F93CF93DF936C01D6
:100210007B018B01040F151FEB015E01AE18BF08B7
:10022000C017D10759F06991D601ED91FC91019069
:10023000F081E02DC6010995892B79F7C501DF9181
:10024000CF911F910F91FF90EF90DF90CF90BF90D3
:10025000AF90089508950895FC01538D448D252F86
:1002600030E0842F90E0821B930B541710F0CF9650
:10027000089501970895FC01918D828D981761F082
:10028000A28DAE0FBF2FB11D5D968C91928D9F5F99
:100290009F73928F90E008958FEF9FEF0895FC0178
:1002A000918D828D981731F0828DE80FF11D858D2B
:1002B00090E008958FEF9FEF08952FB7F894809105
:1002C000580290915902A0915A02B0915B022FBF3F
:1002D0008093D4029093D502A093D602B093D70214
:1002E0008CEC92E00E944F0197FF26C02FB7F89444
:1002F0008091580290915902A0915A02B0915B02EC
:100300002FBF4091D4025091D5026091D6027091D6
:10031000D702841B950BA60BB70B4091D0025091CE
:10032000D1026091D2027091D30284179507A6077B
:10033000B707B0F28FEF9FEF0895FC01918D228DEA
:10034000892F90E0805C9F4F821B91098F739927C2
:1003500008958CEC92E00E949D0121E0892B09F424
:1003600020E0822F089580E090E0892B29F00E9400
:10037000A90181110C9400000895FC01A48DA80F1F
:10038000B92FB11DA35ABF4F2C91848D90E00196D7
:100390008F739927848FA689B7892C93A089B189F7
:1003A0008C91837080648C93938D848D981306C098
:1003B0000288F389E02D80818F7D80830895EF92FC
:1003C000FF920F931F93CF93DF93EC0181E0888F0F
:1003D0009B8D8C8D98131AC0E889F989808185FFDF
:1003E00015C09FB7F894EE89FF896083E889F98981
:1003F00080818370806480839FBF81E090E0DF9183
:10040000CF911F910F91FF90EF900895F62E0B8DD5
:1004100010E00F5F1F4F0F731127E02E8C8D8E1190
:100420000CC00FB607FCFACFE889F989808185FFF7
:10043000F5CFCE010E94BD01F1CFEB8DEC0FFD2F6A
:10044000F11DE35AFF4FF0829FB7F8940B8FEA89B2
:10045000FB8980818062CFCFCF93DF93EC01888DC1
:100460008823B9F0AA89BB89E889F9898C9185FD2F
:1004700003C0808186FD0DC00FB607FCF7CF8C91BD
:1004800085FFF2CF808185FFEDCFCE010E94BD01B7
:10049000E9CFDF91CF91089590E0FC01E45EFE4F3B
:1004A0002491FC01E85FFE4F3491FC01EC50FF4FBA
:1004B000E491EE23C9F0222339F0233001F1A8F4AE
:1004C000213019F1223029F1F0E0EE0FFF1FE65143
:1004D000FF4FA591B4918FB7F894EC91611126C0AC
:1004E00030953E233C938FBF08952730A9F02830E4
:1004F000C9F0243049F7809180008F7D03C080913E
:1005000080008F7780938000DFCF84B58F7784BDA4
:10051000DBCF84B58F7DFBCF8091B0008F77809348
:10052000B000D2CF8091B0008F7DF9CF3E2BDACFD3
:100530003FB7F8948091450290914602A0914702FE
:10054000B091480226B5A89B05C02F3F19F001962F
:10055000A11DB11D3FBFBA2FA92F982F8827BC011D
:10056000CD01620F711D811D911D42E0660F771F45
:10057000881F991F4A95D1F708958F929F92AF9245
:10058000BF92CF92DF92EF92FF926B017C010E94AB
:1005900098024B015C01C114D104E104F104B9F0EB
:1005A0000E949802681979098A099B09683E73407C
:1005B0008105910580F321E0C21AD108E108F10814
:1005C00088EE880E83E0981EA11CB11CE4CFFF903A
:1005D000EF90DF90CF90BF90AF909F908F90089555
:1005E00020912102260F3327331F21323105ECF4ED
:1005F0002091A202FC0190E080E0243069F082E0CA
:100600000895A09121022191AC014F5F5D4FA40F8D
:10061000B52FB11D2C930196861798F38091210276
:10062000680F6093210280E0089581E008951092A0
:10063000A20281E08093A10210927C0261E082E13B
:100640000E944C0261E083E10E944C02E9EBF0E081
:1006500080818E7F808380818D7F808388E48093FA
:10066000B80085E48093BC000895CF93DF9391E0B8
:10067000909300028823B9F0C091B800D091BA00DD
:100680008091BC008A7B8093BC0060E082E10E9484
:100690004C0260E083E10E944C020E941703D09359
:1006A000BA00C093B800DF91CF9108958F929F92C6
:1006B000AF92BF92CF92DF92EF92FF920F931F9370
:1006C000CF93DF93D091CB02D13208F0D7C0182F4F
:1006D000C091CA020E9498026B017C018091A20223
:1006E00081116BC082E08093A2021093A1028FEF70
:1006F0008093A00210929F02D0939E02AAEAB2E0D9
:10070000EEE7F2E080E0D81391C010927D02809174
:100710007D02CC0FC82BC0937D0280917C0281307A
:1007200009F088C010927C020E9498026B017C0143
:1007300080917D028093BB008091A4029091A502DC
:10074000A091A602B091A702892B8A2B8B2BA1F036
:100750000E9498020091A4021091A5022091A60285
:100760003091A7026C197D098E099F09061717079A
:100770002807390708F442C08091BC0083FDD8CF18
:1007800085EC8093BC000E9498026B017C018091F3
:10079000A202823009F450C08091A0028F3F09F478
:1007A0006FC08091A002803209F46CC08091A002D9
:1007B000803309F469C084E026C08091A40290913E
:1007C000A502A091A602B091A702892B8A2B8B2BA0
:1007D00009F484CF0E9498028090A4029090A50210
:1007E000A090A602B090A7026C197D098E099F09FE
:1007F00086169706A806B90608F070CF8091A30266
:100800000E94350385E01092A9021092CB0210924B
:10081000A802DF91CF911F910F91FF90EF90DF9091
:10082000CF90BF90AF909F908F9008959D9191939E
:100830008F5F69CF85EEA5CF8091A4029091A5022C
:10084000A091A602B091A702892B8A2B8B2B09F4C9
:100850009ECF0E9498020091A4021091A5022091BF
:10086000A6023091A7026C197D098E099F0906170F
:1008700017072807390708F08ACFC0CF81E0C3CF18
:1008800080E0C1CF82E0BFCF83E0BDCFCF92DF92C7
:10089000EF92FF920F931F93CF93DF93D82FC62F22
:1008A000613208F098C00E9498026B017C0180912F
:1008B000A20281116BC081E08093A2028093A10209
:1008C0009FEF9093A00210929F029C0F90939E0224
:1008D00080937D0280917D02DD0FD82BD0937D0225
:1008E00080917C02813009F078C010927C020E94D5
:1008F00098026B017C0180917D028093BB00809106
:10090000A4029091A502A091A602B091A702892B02
:100910008A2B8B2BA1F00E9498020091A4021091C7
:10092000A5022091A6023091A7026C197D098E09BB
:100930009F09061717072807390708F448C0809150
:10094000BC0083FDD8CF85EC8093BC000E94980248
:100950006B017C018091A202813009F440C080913A
:100960009F028C1710F4C0919F02EEE7F2E0ACE515
:10097000B2E080E08C1355C08C2FDF91CF911F9196
:100980000F91FF90EF90DF90CF9008958091A40297
:100990009091A502A091A602B091A702892B8A2B63
:1009A0008B2B09F484CF0E9498020091A40210912D
:1009B000A5022091A6023091A7026C197D098E092B
:1009C0009F09061717072807390708F070CF80918D
:1009D000A3020E943503C0E0CFCF85EEB5CF809152
:1009E000A4029091A502A091A602B091A702892B22
:1009F0008A2B8B2B09F4AECF0E9498020091A4029F
:100A00001091A5022091A6023091A7026C197D09D0
:100A10008E099F09061717072807390708F09ACF8C
:100A2000D6CF91919D938F5FA5CF0895E0914E020F
:100A300080914D02E81730F4F0E0E45AFD4F8081D8
:100A400090E008958FEF9FEF089590914E0280916E
:100A50004D022FEF3FEF981748F4E92FF0E0E45AEA
:100A6000FD4F208130E09F5F90934E02C9010895B1
:100A700080914D0290914E02891B990B0895CF925F
:100A8000DF92EF92FF920F931F93CF93DF937C013E
:100A9000CB018A012091A802222389F0EB016B018E
:100AA000C40ED51ECC15DD0569F06991D701ED9115
:100AB000FC910190F081E02DC7010995F3CF642FDF
:100AC0000E94F002C801DF91CF911F910F91FF901A
:100AD000EF90DF90CF900895CF93DF931F92CDB723
:100AE000DEB769832091A8022223F9F02091CB027E
:100AF000203258F021E030E0FC013383228390E083
:100B000080E00F90DF91CF9108958091A902E82FA6
:100B1000F0E0E655FD4F998190838F5F8093A902A5
:100B20008093CB0281E090E0ECCF61E0CE010196B2
:100B30000E94F002F7CF90E080E0089508958EBD06
:100B400000000DB407FEFDCF8EB508954F925F9261
:100B50006F927F928F929F92AF92BF92CF92DF92CD
:100B6000EF92FF92CF93DF93EC01CB01BA010E9489
:100B70009B116B017C01EA8584E0E89FF001112460
:100B8000EE5FFE4F60817181828193810E949B1193
:100B90009B01AC01C701B6010E943F136B017C01B0
:100BA0006BA17CA18DA19EA10E949B11A701960122
:100BB0000E94FA114B015C016B8D7C8D8D8D9E8D99
:100BC0000E949B119B01AC01C501B4010E94D3128C
:100BD000A70196010E94FA114B015C016F8578898B
:100BE00089899A890E949B119B01AC01C501B401BE
:100BF0000E94D312A70196010E94FA114B015C01D9
:100C00006B857C858D859E850E949B119B01AC0127
:100C1000C501B4010E94D3124B015C016F8D78A114
:100C200089A19AA10E949B11A70196010E94FA1125
:100C30002B013C016F89788D898D9A8D0E949B11C3
:100C40009B01AC01C301B2010E94D312A70196011E
:100C50000E94FA116B017C016B897C898D899E89C8
:100C60000E949B119B01AC01C701B6010E94D312E7
:100C70002FA138A549A55AA50E94FA119B01AC01E4
:100C8000C501B4010E94D312DF91CF91FF90EF9084
:100C9000DF90CF90BF90AF909F908F907F906F909C
:100CA0005F904F900895CF92DF92EF92FF92CF9393
:100CB000DF93EC01CB01BA010E949B116B017C0117
:100CC000E88584E0E89FF0011124EE5FFE4F60812B
:100CD0007181828193810E949B119B01AC01C701AC
:100CE000B6010E943F136B017C01CFA2D8A6E9A6F2
:100CF000FAA66BAD7CAD8DAD9EAD0E949B11A70198
:100D000096010E94FA116B017C016FA978AD89AD43
:100D10009AAD0E949B11A70196010E94D312DF9108
:100D2000CF91FF90EF90DF90CF9008951F93CF93D6
:100D3000DF93EC01142F8CA59DA52EA531E03093F7
:100D4000A8022093CA021092A9021092CB02DC01E1
:100D5000ED91FC910190F081E02D09958CA59DA568
:100D6000DC01ED91FC910190F081E02D612F09955E
:100D700081E00E94560321E030E0811102C030E0A2
:100D800020E088279927821B930BDF91CF911F9139
:100D900008950F931F93CF93DF93EC018BA58111DF
:100DA0001CC0142F062F8DE590E00E94C40060E067
:100DB00089A90E944C02802F8F770E949F05812F66
:100DC0000E949F0561E089A90E944C0290E080E0AA
:100DD000DF91CF911F910F9108958FEF9FEFF8CF83
:100DE000FC0123A5211102C00C94C9060C9496069F
:100DF000CF92DF92EF92FF920F931F93CF93DF93E7
:100E00008C01D62FC72F7A01DC019B968C919B9782
:100E100081112AC08DE590E00E94C40060E0F801D5
:100E200081A90E944C028D2F80680E949F05DE2DB3
:100E300067018C2D8D1B8C1738F48FEF0E949F0556
:100E4000D6018D936D01F5CF61E0F80181A90E9473
:100E50004C02D0E0CE01DF91CF911F910F91FF9016
:100E6000EF90DF90CF9008959C968D919C919D97E7
:100E70009E962C9131E03093A8022093CA021092E2
:100E8000A9021092CB02DC01ED91FC910190F0815E
:100E9000E02D099580E00E9456036C2FC13208F0C6
:100EA00060E2F80186A50E94460410924E028093EB
:100EB0004D02C82FD0E06701C6018E199F098C171B
:100EC0009D0744F6D8019C968D919C91DC01ED9193
:100ED000FC910284F385E02D0995F60181936F0161
:100EE000EBCF0F931F93CF93DF9300D01F92CDB71B
:100EF000DEB78B01BA0119821A821B82AE014F5FE5
:100F00005F4F0E94F8060397F9F429818A8190E0E7
:100F1000B0E0A0E0BA2FA92F982F8827A22B2B8111
:100F2000822BF80180839183A283B38368E1C80197
:100F30000E94C70090E080E00F900F900F90DF912B
:100F4000CF911F910F9108958FEF9FEFF5CF0F93E2
:100F50001F93CF93DF93CDB7DEB762970FB6F894A8
:100F6000DEBF0FBECDBF8C01609100017091010109
:100F7000AE014F5F5F4F0E94F806898190E0B0E0BC
:100F8000A0E024E0880F991FAA1FBB1F2A95D1F764
:100F90002A8122952F70822BF80187AB90AFA1AFE9
:100FA000B2AF6CE0C801C7960E94C700F80167A9FC
:100FB00070AD81AD92AD22E030E040E050E00E94A3
:100FC000A515F80127AB30AF41AF52AF8A8190E051
:100FD000B0E0A0E0BA2FA92F982F882788279F700C
:100FE000AA27BB272B81822B83AF94AFA5AFB6AFC7
:100FF0006CE0C801CB960E94C7008C8190E0B0E005
:10100000A0E04CE0880F991FAA1FBB1F4A95D1F79B
:101010004D8150E070E060E0E4E0440F551F661F32
:10102000771FEA95D1F7842B952BA62BB72B2E8112
:1010300022952F70822BF80183879487A587B68726
:1010400064E1C8010B960E94C7008E8190E0B0E079
:10105000A0E0DC019927882788279927AF70BB2754
:101060004F81588554274527542770E060E0842B32
:10107000952BA62BB72BF8018787908BA18BB28B72
:1010800064E1C8010F960E94C70089859A85982758
:1010900089279827B0E0A0E0F801838B948BA58B7B
:1010A000B68B60E1C80143960E94C7008B859C8582
:1010B000982789279827B0E0A0E0F801878B908FC8
:1010C000A18FB28F60E1C80147960E94C7008D854D
:1010D0009E85982789279827B0E0A0E0F801838FA4
:1010E000948FA58FB68F60E1C8014B960E94C70010
:1010F0008F859889982789279827B0E0A0E0F80184
:10110000878F90A3A1A3B2A360E1C8014F960E946C
:10111000C70089899A89982789279827B0E0A0E095
:10112000F80183A394A3A5A3B6A360E1C8018396A5
:101130000E94C70090E080E062960FB6F894DEBF90
:101140000FBECDBFDF91CF911F910F9108951F93D7
:10115000CF93DF93EC01162F8BA581111AC08DE57B
:1011600090E00E94C40060E089A90E944C02812F97
:1011700080680E949F058FEF0E949F05182F61E0F5
:1011800089A90E944C02812F90E0DF91CF911F919D
:1011900008958CA59DA52EA531E03093A80220933B
:1011A000CA021092A9021092CB02DC01ED91FC91CF
:1011B0000190F081E02D099580E00E94560361E0E6
:1011C0008EA50E94460410924E0280934D02882301
:1011D00061F08CA59DA5DC01ED91FC910284F38565
:1011E000E02DDF91CF911F9109948FEF9FEFCDCF2D
:1011F000CF93DF93C52FD62F642F0E94A70897FDAA
:1012000007C08C2390E002C095958795DA95E2F7A8
:10121000DF91CF910895EF92FF920F931F93CF9399
:10122000DF9300D000D0CDB7DEB7DC0114962C914F
:10123000211172C07B018C01FC018281938181307C
:10124000910559F0409168015091690160916A01DE
:10125000029749F08DEF9FEF3CC040916B01509198
:101260006C0160916D01C8010E94F808009709F4B3
:1012700050C0019719F08FEF9FEF2BC0D801129645
:101280008D919C91139713961C921E921297813008
:10129000910551F1029779F7409154015091550110
:1012A000BE016F5F7F4FC8010E94710749815A815B
:1012B0006B817C81D801ED91FC910284F385E02D56
:1012C000C8010995F701608371838283938390E05D
:1012D00080E00F900F900F900F90DF91CF911F91B2
:1012E0000F91FF90EF90089540915201509153015A
:1012F000BE016F5F7F4FC8010E94710749815A810B
:101300006B817C81D801ED91FC910484F585E02D01
:10131000D7CF8CEF9FEFDDCF8EEF9FEFDACFEF923D
:10132000FF920F931F93CF93DF938C01C62FD22F81
:10133000F32EE42E622F0E94A70897FD20C02C2FC9
:1013400001C0220FEA94EAF7482F42274F2148278D
:10135000F80183A56D2F811109C0C801DF91CF91DC
:101360001F910F91FF90EF900C94C906C801DF9177
:10137000CF911F910F91FF90EF900C949606DF9103
:10138000CF911F910F91FF90EF9008950F931F93AE
:10139000CF93DF93EC01062F0770142F1770209165
:1013A0005C0130915D0140915E01602F0E948F09C8
:1013B00020915F013091600140916101612FCE0168
:1013C0000E948F09892B39F08FEF9FEFDF91CF912A
:1013D0001F910F91089509871A87F8CF0F931F93D4
:1013E000CF93DF93EC01062F0770142F1770209115
:1013F00056013091570140915801602F0E948F098A
:101400002091590130915A0140915B01612FCE0129
:101410000E948F09892B39F08FEF9FEFDF91CF91D9
:101420001F910F9108950F831887F8CF0F931F9383
:10143000CF93DF938C01C62F20916201309163011D
:10144000409164010E948F098F3F980731F0D0E0EE
:10145000F801D383C28390E080E0DF91CF911F91A8
:101460000F910895CF93DF93EC018C8181111DC002
:101470008A819B81892BE1F4462F8885861306C0DB
:1014800062E0CE01DF91CF910C94160AE881F981D8
:101490000480F581E02D60E0CE010995892B81F370
:1014A0008FEF9FEFDF91CF9108958EEF9FEFFACFEF
:1014B0008DEF9FEFF7CFCF93DF93FC0124812111B4
:1014C00019C0EC0160E00E94160A0097A9F4E881B7
:1014D000F9810084F185E02DCE0109952091650107
:1014E000309166014091670160E0CE01DF91CF91BC
:1014F0000C948F098EEF9FEFDF91CF9108950F939A
:101500001F93CF93DF93EC018B01288580E190E05E
:10151000A0E0B0E004C0880F991FAA1FBB1F2A9546
:10152000D2F744966AE070E00E946F1590E080E088
:101530000E94BD026AE070E080E090E00E94BD027F
:10154000B801CE010E940B098C01892B19F0CE0144
:101550000E945B0AC801DF91CF911F910F910895FE
:101560000F931F93CF93DF93EC018B0168850E944B
:10157000320A009741F4B801CE01DF91CF911F915B
:101580000F910C947F0ADF91CF911F910F910895D5
:1015900020913401309135014091360161E00C9485
:1015A0008F091F93CF93DF93EC01142F0E94C6097C
:1015B00020913101309132014091330161E01430CA
:1015C00008F460E0CE01DF91CF911F910C948F0958
:1015D0001F93CF93DF93EC01142F0E94EE0920910B
:1015E00028013091290140912A016EA9CE010E9463
:1015F0008F0920912E0130912F014091300161E03F
:10160000143008F460E0CE01DF91CF911F910C946B
:101610008F090F931F93CF93DF93CDB7DEB7289732
:101620000FB6F894DEBF0FBECDBF8C0140912201F2
:1016300050912301609124010E94F80897FF0FC088
:1016400081E0D80114968C9328960FB6F894DEBFEB
:101650000FBECDBFDF91CF911F910F910895F8017B
:101660008583409125015091260160912701C80191
:101670000E94F80897FDE4CFD80116968C9340910C
:101680002B0150912C0160912D01C8010E94F80896
:1016900097FDD6CFF80186AB209128013091290122
:1016A00040912A01682FC8010E948F0997FDC8CF79
:1016B000D801ED91FC910280F381E02DC8010995DC
:1016C00097FDBECFC8010E945B0AD801ED91FC9145
:1016D0000480F581E02D43E062E0C8010995D8015E
:1016E000ED91FC910680F781E02D43E062E0C801B6
:1016F0000995BE016B5F7F4FC8010E94B00AC80107
:101700000E945B0AF801848181119ECF45EA6EE058
:10171000C8010E94F00646E96FE0C8010E94F00689
:1017200042E062E6C8010E94F00640E06EE0C801B7
:101730000E94F00640E06FE0C8010E94F006BE0182
:101740006F5F7F4FC8010E94B00A7ECFFC010190FD
:101750000020E9F73197AF01481B590BBC018CEC15
:1017600092E00C94FD008F929F92AF92BF920F93E4
:101770001F93CF93DF93CDB7DEB7A1970FB6F89441
:10178000DEBF0FBECDBF19A2423008F44AE08E0181
:101790000F5D1F4F842E912CB12CA12CA50194011B
:1017A0000E948315E62FB901CA01EA30F4F4E05D26
:1017B000D801EE938D01232B242B252B79F790E074
:1017C00080E0109719F0CD010E94A60BA1960FB6EC
:1017D000F894DEBF0FBECDBFDF91CF911F910F9167
:1017E000BF90AF909F908F900895E95CE1CF4F92AA
:1017F0005F926F927F928F929F92AF92BF92CF92A1
:10180000DF92EF92FF920F931F93CF936B017C01B6
:10181000742EAC019B010E943514882399F08EEC44
:1018200091E0CF911F910F91FF90EF90DF90CF90BB
:10183000BF90AF909F908F907F906F905F904F90F0
:101840000C94A60B46015701E894B7F82FEF3FEF31
:101850004FE75FE7C501B4010E94351481110DC047
:101860002FEF3FEF4FE75FE7C501B4010E949411EE
:1018700018161CF482ED91E0D4CF2FEF3FEF4FE725
:101880005FE4C701B6010E94E01318161CF486ED50
:1018900091E0C7CF2FEF3FEF4FE75FECC701B601F5
:1018A0000E94941187FDF3CF20E030E0A901C70129
:1018B000B6010E94941110E000E087FF0AC06DE2BB
:1018C0008CEC92E00E94DF018C01F7FAF094F7F8BB
:1018D000F094C0E060E070E080E09FE37C1641F0AF
:1018E00020E030E040E251E40E943F13CF5FF6CFAA
:1018F000A70196010E94D3122B013C010E94B11353
:101900004B015C014AE00E94B30B7C01E00EF11E2A
:10191000CC23C1F1C501B4010E9499119B01AC0116
:10192000C301B2010E94D2124B015C016EE28CEC49
:1019300092E00E94DF01E80EF91EC15018F120E08C
:1019400030E040E251E4C501B4010E94FA112B01DC
:101950003C010E94B1134B01B12CA12C4AE0C501FE
:10196000B4010E94B30BE80EF91EC501B4010E9438
:1019700099119B01AC01C301B2010E94D2124B012B
:101980005C01DBCFC701CF911F910F91FF90EF90CA
:10199000DF90CF90BF90AF909F908F907F906F908F
:1019A0005F904F900895CF92DF92EF92FF92CF9386
:1019B000DF936C01990FEE08FF08F7FE1FC06DE280
:1019C0008CEC92E00E94DF01EC0166277727CB01C7
:1019D0006C197D098E099F094AE00E94B30BC80F5C
:1019E000D91F8AED91E00E94A60B8C0F9D1FDF91FD
:1019F000CF91FF90EF90DF90CF9008954AE0C7011C
:101A0000B6010E94B30BEC01ECCF0E94CA1585ED24
:101A10008093BC008091A4029091A502A091A6029F
:101A2000B091A7020796A11DB11D23E0B695A79519
:101A3000979587952A95D1F72091BC0024FD03C086
:101A40001092A20208954091A4025091A5026091C3
:101A5000A6027091A702452B462B472B69F30097EE
:101A6000A105B10541F025E32A95F1F700000197A2
:101A7000A109B109E1CF8091A3020C9435031F9213
:101A80000F920FB60F9211242F933F934F935F93B2
:101A90006F937F938F939F93AF93BF93EF93FF9336
:101AA0008CEC92E00E94BD01FF91EF91BF91AF914C
:101AB0009F918F917F916F915F914F913F912F9166
:101AC0000F900FBE0F901F9018951F920F920FB698
:101AD0000F9211242F938F939F93EF93FF93E09195
:101AE000DC02F091DD028081E091E202F091E302FC
:101AF00082FD1BC090818091E5028F5F8F732091E2
:101B0000E602821741F0E091E502F0E0E453FD4F78
:101B1000958F8093E502FF91EF919F918F912F9187
:101B20000F900FBE0F901F9018958081F4CF1F92D9
:101B30000F920FB60F9211242F933F938F939F9381
:101B4000AF93BF938091580290915902A0915A028D
:101B5000B0915B023091440223E0230F2D3758F5FA
:101B60000196A11DB11D20934402809358029093C9
:101B70005902A0935A02B0935B0280914502909162
:101B80004602A0914702B09148020196A11DB11DE5
:101B90008093450290934602A0934702B093480277
:101BA000BF91AF919F918F913F912F910F900FBE59
:101BB0000F901F90189526E8230F0296A11DB11DC6
:101BC000D2CF1F920F920FB60F9211242F933F93F3
:101BD0004F935F936F937F938F939F93AF93BF9335
:101BE000EF93FF938091B900887F803609F44AC053
:101BF000F0F5883209F4A7C018F5803109F49BC0CC
:101C0000B8F4882309F4F9C0883009F494C0FF912E
:101C1000EF91BF91AF919F918F917F916F915F9164
:101C20004F913F912F910F900FBE0F901F901895DD
:101C3000883109F488C0803251F78093A00214C023
:101C4000803409F49DC040F48033B9F38833F9F649
:101C50008093A00285ECB0C0803509F485C088353A
:101C600009F496C0883499F60E94070DD0CF8839C0
:101C700009F48CC038F5883729F050F4883611F013
:101C8000803729F683E08093A2021092430257C066
:101C9000883809F47BC0803919F0803809F0B7CF53
:101CA00080914302803208F071C0E091430281E0EC
:101CB0008E0F809343028091BB00F0E0ED5DFD4FFD
:101CC00080833DC0803B39F0E0F4803A09F479C06C
:101CD000883A09F09CCF84E08093A20210922202FD
:101CE00010922102E0914B02F0914C0209958091F3
:101CF000210281110FC081E0809321021092010224
:101D000009C0803C09F4A6CF883C09F4A3CF883BE6
:101D100009F07DCFE091220281E08E0F80932202B4
:101D2000F0E0EF5FFD4F80818093BB009091220235
:101D30008091210229C080917D028093BB0085ECB7
:101D40008093BC0064CF90919F0280919E0298176F
:101D500058F5E0919F0281E08E0F80939F02F0E0A2
:101D6000E258FD4F8081E9CFE0919F0281E08E0F24
:101D700080939F028091BB00F0E0E258FD4F80838A
:101D800090919F0280919E029817C8F285E8D8CF63
:101D9000E0919F0281E08E0F80939F028091BB00B3
:101DA000F0E0E258FD4F80838091A10281115CCF69
:101DB00081E080937C0284EA8093BC001092A202AE
:101DC00026CF85EC8093BC001092A2028091430242
:101DD000803230F4E0914302F0E0ED5DFD4F10827F
:101DE0006091430270E0E0914902F0914A0283E27F
:101DF00092E00995109243020ACF1092A00234CFCC
:101E0000ECECF2E01382128288EE93E0A0E0B0E006
:101E100084839583A683B7832AE831E031832083C6
:101E200025EC30E03587248724EC30E0378726879F
:101E300020EC30E0318B208B21EC30E0338B228B97
:101E400022EC30E0358B248B26EC30E0378B268B70
:101E5000118E128E138E148EE9E6F3E01382128235
:101E600084839583A683B7838CE991E091838083F3
:101E7000EBEAF3E089E0DF011D928A95E9F7E5E7F7
:101E8000F3E081E0848380EC91E091838083089586
:101E9000CF93DF93CDB7DEB728970FB6F894DEBFA8
:101EA0000FBECDBF789484B5826084BD84B5816057
:101EB00084BD85B5826085BD85B5816085BD809115
:101EC0006E00816080936E0010928100809181008D
:101ED0008260809381008091810081608093810085
:101EE000809180008160809380008091B100846047
:101EF0008093B1008091B00081608093B0008091A8
:101F00007A00846080937A0080917A008260809366
:101F10007A0080917A00816080937A0080917A00C3
:101F2000806880937A001092C100E091DC02F09109
:101F3000DD0282E08083E091D802F091D902108224
:101F4000E091DA02F091DB028FEC80831092E402E0
:101F5000E091E002F091E10286E08083E091DE0210
:101F6000F091DF02808180618083E091DE02F09158
:101F7000DF02808188608083E091DE02F091DF02E1
:101F8000808180688083E091DE02F091DF028081B1
:101F90008F7D80831092790381E08093A00389E68E
:101FA00093E09093A2038093A10387E78093A30318
:101FB00010924E0210924D021092A9021092CB0282
:101FC0000E9417038AE291E090934C0280934B02A7
:101FD0008BE291E090934A028093490262E370E0C1
:101FE00080E090E00E94BD0285E793E00E94090B2B
:101FF0008DED91E00E94A60B8AED91E00E94A60B68
:102000000AE010E030E0232E30E0332E67E085E771
:1020100093E00E94320A7C01892B51F4BE016B5F70
:102020007F4F85E793E00E947F0A7C01892B41F076
:102030008CEE91E00E94A60BC7010E94D30C5EC1FA
:1020400080917903811156C0809177039091780334
:10205000892B09F054C080917F03873099F561E0A6
:1020600085E793E00E94160A7C01892B09F780918D
:102070007F0320E130E040E050E004C0220F331F36
:10208000441F551F8A95D2F7C9014496B8010E9492
:102090006F1590E080E00E94BD026AE070E080E091
:1020A00090E00E94BD02BE016F5F7F4F85E793E025
:1020B0000E940B097C01892B39F185E793E00E948E
:1020C0005B0AB6CF47E060E085E793E00E94D10A63
:1020D000892B29F2EE24EA94FE2CAACF8CEC92E014
:1020E0000E943B0120C0BB24B39449C0C12CD12C19
:1020F00076015CC02EEFE22EFF24FA9499CF9DEF7B
:10210000E92EFF24FA9494CF8CEC92E00E949D017A
:10211000181619060CF0A6C08CEC92E00E943B0148
:10212000833709F09FC00E945D01FC0197FDDECF5F
:102130008D32910519F0C0970A9780F6C12CD12CE9
:102140007601B12CE130F105D1F0ED32F10559F213
:10215000CF01C0970A9798F4AAE0B0E0A7019601D2
:102160000E94B8126F01FF0FEE08FF08C60ED71EBF
:10217000E81EF91E30E3C31AD108E108F1088CEC1F
:1021800092E00E943B010E945D01FC01C0970A970A
:10219000C8F2E130F105B1F2BB2041F0F094E094D7
:1021A000D094C094C11CD11CE11CF11C89809A8080
:1021B000AB80BC808092540290925502A09256024D
:1021C000B09257024D805E806F80788440925002BA
:1021D00050925102609252027092530281E08093B9
:1021E0004F02C701B6010E949B1124EF3DEF44ED61
:1021F0005BE30E94FA116B017C0123E333E948E8B9
:1022000053E4C301B2010E94D312A70196010E94B8
:10221000D3129B01AC01C701B6010E943F139B0181
:10222000AC0160E070E080E89FE30E94D2122CE1F4
:102230003CE248EA50E40E94E5139B01AC01C50171
:10224000B4010E943F1342E00E94F70B8AED91E037
:102250000E94A60B89EF91E00E94A60B8AED91E007
:102260000E94A60B80914F02882309F441C020915F
:1022700054023091550240915602509157026981A3
:102280007A818B819C810E943F132BE534ED42E4DF
:102290005EEB0E94E5134B015C0123E333E948E860
:1022A00053E46091500270915102809152029091DA
:1022B00053020E94D31224EF3DEF44ED5BE30E94F2
:1022C0003F136B017C0120E030E040E85FE3C50193
:1022D000B4010E94D2129B01AC01C701B6010E9459
:1022E000FA1142E00E94F70B8AED91E00E94A60BE2
:1022F00064EF71E080E090E00E94BD02211431049F
:1023000009F484CE0E94A901882309F47FCE0E949B
:1023100000007CCE8EEA91E0909376038093750363
:1023200085E793E00C945B0A0E94D61108F481E0E3
:102330000895E89409C097FB3EF4909580957095B8
:1023400061957F4F8F4F9F4F9923A9F0F92F96E901
:10235000BB279395F695879577956795B795F11176
:10236000F8CFFAF4BB0F11F460FF1BC06F5F7F4F13
:102370008F4F9F4F16C0882311F096E911C0772325
:1023800021F09EE8872F762F05C0662371F096E82E
:10239000862F70E060E02AF09A95660F771F881FFD
:1023A000DAF7880F9695879597F90895990F0008A1
:1023B000550FAA0BE0E8FEEF16161706E807F90717
:1023C000C0F012161306E407F50798F0621B730BB2
:1023D000840B950B39F40A2661F0232B242B252B33
:1023E00021F408950A2609F4A140A6958FEF811DD6
:1023F000811D08950E940D120C947E120E9470128D
:1024000038F00E94771220F0952311F00C94671297
:102410000C946D1211240C94B2120E948F1270F35E
:10242000959FC1F3950F50E0551F629FF001729F79
:10243000BB27F00DB11D639FAA27F00DB11DAA1F88
:10244000649F6627B00DA11D661F829F2227B00DD5
:10245000A11D621F739FB00DA11D621F839FA00D60
:10246000611D221F749F3327A00D611D231F849FB0
:10247000600D211D822F762F6A2F11249F57504007
:102480009AF0F1F088234AF0EE0FFF1FBB1F661F82
:10249000771F881F91505040A9F79E3F510580F04B
:1024A0000C9467120C94B2125F3FE4F3983ED4F39D
:1024B000869577956795B795F795E7959F5FC1F7EF
:1024C000FE2B880F911D9695879597F9089597F99A
:1024D0009F6780E870E060E008959FEF80EC0895CA
:1024E00000240A94161617061806090608950024F3
:1024F0000A9412161306140605060895092E03946D
:10250000000C11F4882352F0BB0F40F4BF2B11F4E0
:1025100060FF04C06F5F7F4F8F4F9F4F089557FD3F
:102520009058440F551F59F05F3F71F04795880F41
:1025300097FB991F61F09F3F79F0879508951216D8
:1025400013061406551FF2CF4695F1DF08C0161684
:1025500017061806991FF1CF869571056105089435
:102560000895E894BB2766277727CB0197F908954C
:102570000E94C312A59F900DB49F900DA49F800D43
:10258000911D11240895A29FB001B39FC001A39F84
:10259000700D811D1124911DB29F700D811D11249C
:1025A000911D08955058BB27AA270E94EA120C9447
:1025B0007E120E94701238F00E94771220F039F4D7
:1025C0009F3F19F426F40C946D120EF4E095E7FB8E
:1025D0000C946712E92F0E948F1258F3BA17620702
:1025E00073078407950720F079F4A6F50C94B112CF
:1025F0000EF4E0950B2EBA2FA02D0B01B90190011E
:102600000C01CA01A0011124FF27591B99F0593F61
:1026100050F4503E68F11A16F040A22F232F342FA9
:102620004427585FF3CF469537952795A795F040F7
:102630005395C9F77EF41F16BA0B620B730B840B0C
:10264000BAF09150A1F0FF0FBB1F661F771F881FC4
:10265000C2F70EC0BA0F621F731F841F48F487951C
:1026600077956795B795F7959E3F08F0B0CF93950E
:10267000880F08F09927EE0F9795879508950E9487
:1026800053130C947E120E94771258F00E9470121D
:1026900040F029F45F3F29F00C94671251110C941B
:1026A000B2120C946D120E948F1268F39923B1F349
:1026B000552391F3951B550BBB27AA276217730768
:1026C000840738F09F5F5F4F220F331F441FAA1FFC
:1026D000A9F335D00E2E3AF0E0E832D091505040B8
:1026E000E695001CCAF72BD0FE2F29D0660F771F66
:1026F000881FBB1F261737074807AB07B0E809F04C
:10270000BB0B802DBF01FF2793585F4F3AF09E3FD0
:10271000510578F00C9467120C94B2125F3FE4F309
:10272000983ED4F3869577956795B795F7959F5F13
:10273000C9F7880F911D9695879597F90895E1E05F
:10274000660F771F881FBB1F621773078407BA07BE
:1027500020F0621B730B840BBA0BEE1F88F7E09519
:1027600008950E94971288F09F5798F0B92F9927E3
:10277000B751B0F0E1F0660F771F881F991F1AF06C
:10278000BA95C9F714C0B13091F00E94B112B1E00E
:1027900008950C94B112672F782F8827B85F39F00D
:1027A000B93FCCF3869577956795B395D9F73EF405
:1027B00090958095709561957F4F8F4F9F4F0895AD
:1027C0000E94D61108F48FEF0895FA01EE0FFF1F53
:1027D000309621053105A1F16115710561F480384C
:1027E000BFE39B0749F168949038810561F0803818
:1027F000BFEF9B0741F099234AF5FF3FE105310503
:10280000210519F1E8940894E795D901AA2329F440
:10281000AB2FBE2FF85FD0F310C0FF5F70F4A6950A
:10282000E0F7F73950F019F0FF3A38F49F779F93AB
:102830000DD00F9007FC9058089546F00C946D123F
:1028400060E070E080E89FE308954FE79F775F9333
:102850004F933F932F930E94E5142F913F914F91F7
:102860005F910E94FA110C9442140E94D611880BB9
:10287000990B089529F416F00C9467120C94B11278
:102880000C946D120E949712A8F39638A0F707F8DF
:102890000F92E8942BE33AEA48EB5FE70E941012AC
:1028A0000F920F920F924DB75EB70F920E942D15A7
:1028B000E8E6F0E00E9474144F915F91EF91FF9170
:1028C000E595EE1FFF1F49F0FE57E0684427EE0F25
:1028D000441FFA95E1F74195550B0E94A7140F90FC
:1028E00007FE0C949B140895DF93CF931F930F93CF
:1028F000FF92EF92DF927B018C01689406C0DA2E82
:10290000EF010E940D12FE01E894A59125913591E9
:1029100045915591A6F3EF010E94EA12FE0197013D
:10292000A801DA9469F7DF90EF90FF900F911F9163
:10293000CF91DF9108959B01AC0160E070E080E8E9
:102940009FE30C943F130C9467120C9461150E9442
:102950009712D8F39923C9F3940F511DA3F3915003
:10296000504094F059F0882332F0660F771F881F8B
:1029700091505040C1F79E3F51052CF7880F911D93
:102980009695879597F908955F3FACF0983E9CF037
:10299000BB27869577956795B79508F4B1609395B1
:1029A000C1F7BB0F58F711F460FFE8CF6F5F7F4F9F
:1029B0008F4F9F4FE3CF0C94B21216F00C94611519
:1029C0000C946D1268940C9467120E949712A8F3ED
:1029D0009923C1F3AEF3DF93CF931F930F93FF922D
:1029E000C92FDD2788232AF02197660F771F881FBC
:1029F000DAF720E030E040E85FEB9FE3883920F031
:102A0000803E38F021968F770E94D312E0E9F0E003
:102A100004C00E94D312EDEBF0E00E9474148B010D
:102A2000BE01EC01FB2E6F5771097595771F880B5E
:102A3000990B0E949B1128E132E741E35FE30E947A
:102A40000D12AF2D9801AE01FF900F911F91CF9104
:102A5000DF910E94EA120C947E12FA01DC01AA0FA7
:102A6000BB1F9B01AC01BF5728F422273327442703
:102A7000507820C0B75190F4AB2F0024469537957D
:102A80002795011CA395D2F3002071F0220F331F6C
:102A9000441FB395DAF30ED00C94D2126130710555
:102AA000A0E88A07B94630F49B01AC016627772776
:102AB00088279078309621F0208331834283538396
:102AC00008959F3F31F0915020F487957795679551
:102AD000B795880F911D9695879597F90895AA1B2C
:102AE000BB1B51E107C0AA1FBB1FA617B70710F0F9
:102AF000A61BB70B881F991F5A95A9F7809590952B
:102B0000BC01CD010895A1E21A2EAA1BBB1BFD0139
:102B10000DC0AA1FBB1FEE1FFF1FA217B307E407BC
:102B2000F50720F0A21BB30BE40BF50B661F771F14
:102B3000881F991F1A9469F76095709580959095F4
:102B40009B01AC01BD01CF010895052E97FB1EF43A
:102B500000940E94BC1557FD07D00E94831507FC06
:102B600003D04EF40C94BC155095409530952195AA
:102B70003F4F4F4F5F4F08959095809570956195A9
:102B80007F4F8F4F9F4F0895EE0FFF1F0590F491D9
:102B9000E02D099481E090E0F8940C94CF1510E0BA
:102BA000C9E9D0E004C0FE010E94C4152196CA39CB
:082BB000D107C9F7F894FFCF2B
:102BB8001012000008000000180000003800000093
:102BC800780000E0030000E0070000E00F0000E0EC
:102BD8001F000D0F000DF004078007288007090863
:102BE800030904020C80070B01000B02010980078E
:102BF8000970040000000000000000000000000050
:102C080000000003030307700407070006700406AA
:102C180007000807000902010820050810040A0433
:102C2800020A02010A010000000000000000000082
:102C380000000000000000000000DF01FD002C0182
:102C48002C029D013B014F01000000006C053F056F
:102C58009B05150538052505160500000000050D1E
:102C6800050DEE09C609050D050D050D000000004E
:102C7800090BA707E80AD10AC80A5306A6056E6118
:102C88006E00696E66006F7666000D0A00496E690F
:102C98007420636F6D706C65746521004641494C02
:102CA8002120726574203D20005374617274000005
:107E0000112484B714BE81FFF0D085E080938100F7
:107E100082E08093C00088E18093C10086E0809377
:107E2000C20080E18093C4008EE0C9D0259A86E02C
:107E300020E33CEF91E0309385002093840096BBD3
:107E4000B09BFECF1D9AA8958150A9F7CC24DD24C4
:107E500088248394B5E0AB2EA1E19A2EF3E0BF2EE7
:107E6000A2D0813461F49FD0082FAFD0023811F036
:107E7000013811F484E001C083E08DD089C08234E0
:107E800011F484E103C0853419F485E0A6D080C0E4
:107E9000853579F488D0E82EFF2485D0082F10E0AE
:107EA000102F00270E291F29000F111F8ED06801E7
:107EB0006FC0863521F484E090D080E0DECF843638
:107EC00009F040C070D06FD0082F6DD080E0C81688
:107ED00080E7D80618F4F601B7BEE895C0E0D1E017
:107EE00062D089930C17E1F7F0E0CF16F0E7DF06D8
:107EF00018F0F601B7BEE89568D007B600FCFDCFD4
:107F0000A601A0E0B1E02C9130E011968C91119780
:107F100090E0982F8827822B932B1296FA010C0160
:107F200087BEE89511244E5F5F4FF1E0A038BF0790
:107F300051F7F601A7BEE89507B600FCFDCF97BE46
:107F4000E89526C08437B1F42ED02DD0F82E2BD052
:107F50003CD0F601EF2C8F010F5F1F4F84911BD097
:107F6000EA94F801C1F70894C11CD11CFA94CF0C13
:107F7000D11C0EC0853739F428D08EE10CD085E9AC
:107F80000AD08FE07ACF813511F488E018D01DD067
:107F900080E101D065CF982F8091C00085FFFCCF94
:107FA0009093C60008958091C00087FFFCCF809118
:107FB000C00084FD01C0A8958091C6000895E0E648
:107FC000F0E098E1908380830895EDDF803219F02E
:107FD00088E0F5DFFFCF84E1DECF1F93182FE3DFCA
:107FE0001150E9F7F2DF1F91089580E0E8DFEE27F6
:047FF000FF270994CA
:027FFE00040479
:0400000300007E007B
:00000001FF